{
  "contractName": "ERC721URIRoyalty",
  "abi": [
    {
      "inputs": [
        {
          "internalType": "string",
          "name": "_name",
          "type": "string"
        },
        {
          "internalType": "string",
          "name": "_symbol",
          "type": "string"
        },
        {
          "internalType": "uint96",
          "name": "_fee",
          "type": "uint96"
        },
        {
          "internalType": "string",
          "name": "_contractURI",
          "type": "string"
        }
      ],
      "stateMutability": "nonpayable",
      "type": "constructor"
    },
    {
      "anonymous": false,
      "inputs": [
        {
          "indexed": true,
          "internalType": "address",
          "name": "owner",
          "type": "address"
        },
        {
          "indexed": true,
          "internalType": "address",
          "name": "approved",
          "type": "address"
        },
        {
          "indexed": true,
          "internalType": "uint256",
          "name": "tokenId",
          "type": "uint256"
        }
      ],
      "name": "Approval",
      "type": "event"
    },
    {
      "anonymous": false,
      "inputs": [
        {
          "indexed": true,
          "internalType": "address",
          "name": "owner",
          "type": "address"
        },
        {
          "indexed": true,
          "internalType": "address",
          "name": "operator",
          "type": "address"
        },
        {
          "indexed": false,
          "internalType": "bool",
          "name": "approved",
          "type": "bool"
        }
      ],
      "name": "ApprovalForAll",
      "type": "event"
    },
    {
      "anonymous": false,
      "inputs": [
        {
          "indexed": true,
          "internalType": "address",
          "name": "previousOwner",
          "type": "address"
        },
        {
          "indexed": true,
          "internalType": "address",
          "name": "newOwner",
          "type": "address"
        }
      ],
      "name": "OwnershipTransferred",
      "type": "event"
    },
    {
      "anonymous": false,
      "inputs": [
        {
          "indexed": true,
          "internalType": "address",
          "name": "from",
          "type": "address"
        },
        {
          "indexed": true,
          "internalType": "address",
          "name": "to",
          "type": "address"
        },
        {
          "indexed": true,
          "internalType": "uint256",
          "name": "tokenId",
          "type": "uint256"
        }
      ],
      "name": "Transfer",
      "type": "event"
    },
    {
      "inputs": [
        {
          "internalType": "address",
          "name": "to",
          "type": "address"
        },
        {
          "internalType": "uint256",
          "name": "tokenId",
          "type": "uint256"
        }
      ],
      "name": "approve",
      "outputs": [],
      "stateMutability": "nonpayable",
      "type": "function"
    },
    {
      "inputs": [
        {
          "internalType": "address",
          "name": "owner",
          "type": "address"
        }
      ],
      "name": "balanceOf",
      "outputs": [
        {
          "internalType": "uint256",
          "name": "",
          "type": "uint256"
        }
      ],
      "stateMutability": "view",
      "type": "function",
      "constant": true
    },
    {
      "inputs": [
        {
          "internalType": "uint256",
          "name": "tokenId",
          "type": "uint256"
        }
      ],
      "name": "getApproved",
      "outputs": [
        {
          "internalType": "address",
          "name": "",
          "type": "address"
        }
      ],
      "stateMutability": "view",
      "type": "function",
      "constant": true
    },
    {
      "inputs": [
        {
          "internalType": "address",
          "name": "owner",
          "type": "address"
        },
        {
          "internalType": "address",
          "name": "operator",
          "type": "address"
        }
      ],
      "name": "isApprovedForAll",
      "outputs": [
        {
          "internalType": "bool",
          "name": "",
          "type": "bool"
        }
      ],
      "stateMutability": "view",
      "type": "function",
      "constant": true
    },
    {
      "inputs": [],
      "name": "name",
      "outputs": [
        {
          "internalType": "string",
          "name": "",
          "type": "string"
        }
      ],
      "stateMutability": "view",
      "type": "function",
      "constant": true
    },
    {
      "inputs": [],
      "name": "owner",
      "outputs": [
        {
          "internalType": "address",
          "name": "",
          "type": "address"
        }
      ],
      "stateMutability": "view",
      "type": "function",
      "constant": true
    },
    {
      "inputs": [
        {
          "internalType": "uint256",
          "name": "tokenId",
          "type": "uint256"
        }
      ],
      "name": "ownerOf",
      "outputs": [
        {
          "internalType": "address",
          "name": "",
          "type": "address"
        }
      ],
      "stateMutability": "view",
      "type": "function",
      "constant": true
    },
    {
      "inputs": [],
      "name": "renounceOwnership",
      "outputs": [],
      "stateMutability": "nonpayable",
      "type": "function"
    },
    {
      "inputs": [
        {
          "internalType": "uint256",
          "name": "_tokenId",
          "type": "uint256"
        },
        {
          "internalType": "uint256",
          "name": "_salePrice",
          "type": "uint256"
        }
      ],
      "name": "royaltyInfo",
      "outputs": [
        {
          "internalType": "address",
          "name": "",
          "type": "address"
        },
        {
          "internalType": "uint256",
          "name": "",
          "type": "uint256"
        }
      ],
      "stateMutability": "view",
      "type": "function",
      "constant": true
    },
    {
      "inputs": [
        {
          "internalType": "address",
          "name": "from",
          "type": "address"
        },
        {
          "internalType": "address",
          "name": "to",
          "type": "address"
        },
        {
          "internalType": "uint256",
          "name": "tokenId",
          "type": "uint256"
        }
      ],
      "name": "safeTransferFrom",
      "outputs": [],
      "stateMutability": "nonpayable",
      "type": "function"
    },
    {
      "inputs": [
        {
          "internalType": "address",
          "name": "from",
          "type": "address"
        },
        {
          "internalType": "address",
          "name": "to",
          "type": "address"
        },
        {
          "internalType": "uint256",
          "name": "tokenId",
          "type": "uint256"
        },
        {
          "internalType": "bytes",
          "name": "_data",
          "type": "bytes"
        }
      ],
      "name": "safeTransferFrom",
      "outputs": [],
      "stateMutability": "nonpayable",
      "type": "function"
    },
    {
      "inputs": [
        {
          "internalType": "address",
          "name": "operator",
          "type": "address"
        },
        {
          "internalType": "bool",
          "name": "approved",
          "type": "bool"
        }
      ],
      "name": "setApprovalForAll",
      "outputs": [],
      "stateMutability": "nonpayable",
      "type": "function"
    },
    {
      "inputs": [],
      "name": "symbol",
      "outputs": [
        {
          "internalType": "string",
          "name": "",
          "type": "string"
        }
      ],
      "stateMutability": "view",
      "type": "function",
      "constant": true
    },
    {
      "inputs": [],
      "name": "tokenId_",
      "outputs": [
        {
          "internalType": "uint256",
          "name": "_value",
          "type": "uint256"
        }
      ],
      "stateMutability": "view",
      "type": "function",
      "constant": true
    },
    {
      "inputs": [
        {
          "internalType": "uint256",
          "name": "tokenId",
          "type": "uint256"
        }
      ],
      "name": "tokenURI",
      "outputs": [
        {
          "internalType": "string",
          "name": "",
          "type": "string"
        }
      ],
      "stateMutability": "view",
      "type": "function",
      "constant": true
    },
    {
      "inputs": [
        {
          "internalType": "address",
          "name": "from",
          "type": "address"
        },
        {
          "internalType": "address",
          "name": "to",
          "type": "address"
        },
        {
          "internalType": "uint256",
          "name": "tokenId",
          "type": "uint256"
        }
      ],
      "name": "transferFrom",
      "outputs": [],
      "stateMutability": "nonpayable",
      "type": "function"
    },
    {
      "inputs": [
        {
          "internalType": "address",
          "name": "newOwner",
          "type": "address"
        }
      ],
      "name": "transferOwnership",
      "outputs": [],
      "stateMutability": "nonpayable",
      "type": "function"
    },
    {
      "inputs": [],
      "name": "contractURI",
      "outputs": [
        {
          "internalType": "string",
          "name": "",
          "type": "string"
        }
      ],
      "stateMutability": "view",
      "type": "function",
      "constant": true
    },
    {
      "inputs": [
        {
          "internalType": "string",
          "name": "_contractURI",
          "type": "string"
        }
      ],
      "name": "setContractURI",
      "outputs": [],
      "stateMutability": "nonpayable",
      "type": "function"
    },
    {
      "inputs": [
        {
          "internalType": "address",
          "name": "_to",
          "type": "address"
        },
        {
          "internalType": "string",
          "name": "_tokenURI",
          "type": "string"
        }
      ],
      "name": "mintTo",
      "outputs": [],
      "stateMutability": "nonpayable",
      "type": "function"
    },
    {
      "inputs": [
        {
          "internalType": "address",
          "name": "_to",
          "type": "address"
        },
        {
          "internalType": "string",
          "name": "_tokenURI",
          "type": "string"
        },
        {
          "internalType": "uint96",
          "name": "_fee",
          "type": "uint96"
        }
      ],
      "name": "mintToAdjustRoyalty",
      "outputs": [],
      "stateMutability": "nonpayable",
      "type": "function"
    },
    {
      "inputs": [
        {
          "internalType": "uint256",
          "name": "_tokenId",
          "type": "uint256"
        },
        {
          "internalType": "string",
          "name": "_tokenURI",
          "type": "string"
        }
      ],
      "name": "updateTokenURI",
      "outputs": [],
      "stateMutability": "nonpayable",
      "type": "function"
    },
    {
      "inputs": [
        {
          "internalType": "uint96",
          "name": "_fee",
          "type": "uint96"
        }
      ],
      "name": "updateDefaultRoyalty",
      "outputs": [],
      "stateMutability": "nonpayable",
      "type": "function"
    },
    {
      "inputs": [
        {
          "internalType": "bytes4",
          "name": "interfaceId",
          "type": "bytes4"
        }
      ],
      "name": "supportsInterface",
      "outputs": [
        {
          "internalType": "bool",
          "name": "",
          "type": "bool"
        }
      ],
      "stateMutability": "view",
      "type": "function",
      "constant": true
    }
  ],
  "bytecode": "0x60806040523480156200001157600080fd5b50604051620022f9380380620022f983398101604081905262000034916200038c565b8351849084906200004d90600090602085019062000219565b5080516200006390600190602084019062000219565b505050620000806200007a620000be60201b60201c565b620000c2565b600d80546001600160a01b031916331790558051620000a790600c90602084019062000219565b50620000b4338362000114565b505050506200047b565b3390565b600980546001600160a01b038381166001600160a01b0319831681179093556040519116919082907f8be0079c531659141344cd1fd0a4f28419497f9722a3daafe3b4186f6b6457e090600090a35050565b6127106001600160601b0382161115620001885760405162461bcd60e51b815260206004820152602a60248201527f455243323938313a20726f79616c7479206665652077696c6c206578636565646044820152692073616c65507269636560b01b60648201526084015b60405180910390fd5b6001600160a01b038216620001e05760405162461bcd60e51b815260206004820152601960248201527f455243323938313a20696e76616c69642072656365697665720000000000000060448201526064016200017f565b604080518082019091526001600160a01b039092168083526001600160601b039091166020909201829052600160a01b90910217600755565b82805462000227906200043f565b90600052602060002090601f0160209004810192826200024b576000855562000296565b82601f106200026657805160ff191683800117855562000296565b8280016001018555821562000296579182015b828111156200029657825182559160200191906001019062000279565b50620002a4929150620002a8565b5090565b5b80821115620002a45760008155600101620002a9565b634e487b7160e01b600052604160045260246000fd5b600082601f830112620002e757600080fd5b81516001600160401b0380821115620003045762000304620002bf565b604051601f8301601f19908116603f011681019082821181831017156200032f576200032f620002bf565b816040528381526020925086838588010111156200034c57600080fd5b600091505b8382101562000370578582018301518183018401529082019062000351565b83821115620003825760008385830101525b9695505050505050565b60008060008060808587031215620003a357600080fd5b84516001600160401b0380821115620003bb57600080fd5b620003c988838901620002d5565b95506020870151915080821115620003e057600080fd5b620003ee88838901620002d5565b604088015190955091506001600160601b03821682146200040e57600080fd5b6060870151919350808211156200042457600080fd5b506200043387828801620002d5565b91505092959194509250565b600181811c908216806200045457607f821691505b6020821081036200047557634e487b7160e01b600052602260045260246000fd5b50919050565b611e6e806200048b6000396000f3fe608060405234801561001057600080fd5b50600436106101275760003560e01c806275a3171461012c57806301ffc9a71461014157806306fdde0314610169578063081812fc1461017e578063095ea7b3146101a957806313df9080146101bc57806318e97fd1146101cf57806323b872dd146101e25780632a55205a146101f557806342842e0e146102275780636352211e1461023a57806370a082311461024d578063715018a61461026e5780638da5cb5b14610276578063938e3d7b1461027e57806395d89b4114610291578063a22cb46514610299578063b88d4fde146102ac578063c87b56dd146102bf578063e89cb7c4146102d2578063e8a3d485146102e5578063e985e9c5146102ed578063efb3cca414610300578063f2fde38b1461030a575b600080fd5b61013f61013a3660046117fe565b61031d565b005b61015461014f366004611861565b610343565b60405190151581526020015b60405180910390f35b610171610354565b60405161016091906118d6565b61019161018c3660046118e9565b6103e6565b6040516001600160a01b039091168152602001610160565b61013f6101b7366004611902565b610473565b61013f6101ca366004611943565b61057e565b61013f6101dd3660046119a0565b6105ec565b61013f6101f03660046119d0565b610629565b610208610203366004611a0c565b61065a565b604080516001600160a01b039093168352602083019190915201610160565b61013f6102353660046119d0565b610706565b6101916102483660046118e9565b610721565b61026061025b366004611a2e565b610798565b604051908152602001610160565b61013f61081f565b61019161085a565b61013f61028c366004611a49565b610869565b6101716108ab565b61013f6102a7366004611a7d565b6108ba565b61013f6102ba366004611ab9565b6108c5565b6101716102cd3660046118e9565b6108f7565b61013f6102e0366004611b34565b610a6d565b610171610ab5565b6101546102fb366004611b4f565b610ac4565b600a546102609081565b61013f610318366004611a2e565b610af2565b6000610328600a5490565b90506103348382610b8f565b61033e8183610ba9565b505050565b600061034e82610c34565b92915050565b60606000805461036390611b82565b80601f016020809104026020016040519081016040528092919081815260200182805461038f90611b82565b80156103dc5780601f106103b1576101008083540402835291602001916103dc565b820191906000526020600020905b8154815290600101906020018083116103bf57829003601f168201915b5050505050905090565b60006103f182610c59565b6104575760405162461bcd60e51b815260206004820152602c60248201527f4552433732313a20617070726f76656420717565727920666f72206e6f6e657860448201526b34b9ba32b73a103a37b5b2b760a11b60648201526084015b60405180910390fd5b506000908152600460205260409020546001600160a01b031690565b600061047e82610721565b9050806001600160a01b0316836001600160a01b0316036104eb5760405162461bcd60e51b815260206004820152602160248201527f4552433732313a20617070726f76616c20746f2063757272656e74206f776e656044820152603960f91b606482015260840161044e565b336001600160a01b038216148061050757506105078133610ac4565b6105745760405162461bcd60e51b815260206004820152603860248201527f4552433732313a20617070726f76652063616c6c6572206973206e6f74206f776044820152771b995c881b9bdc88185c1c1c9bdd995908199bdc88185b1b60421b606482015260840161044e565b61033e8383610c76565b3361058761085a565b6001600160a01b0316146105ad5760405162461bcd60e51b815260040161044e90611bbc565b60006105b8600a5490565b90506105c48482610b8f565b6105ce8184610ba9565b600d546105e69082906001600160a01b031684610ce4565b50505050565b336105f561085a565b6001600160a01b03161461061b5760405162461bcd60e51b815260040161044e90611bbc565b6106258282610ba9565b5050565b6106333382610dad565b61064f5760405162461bcd60e51b815260040161044e90611bf1565b61033e838383610e6f565b60008281526008602090815260408083208151808301909252546001600160a01b038116808352600160a01b9091046001600160601b03169282019290925282916106cf5750604080518082019091526007546001600160a01b0381168252600160a01b90046001600160601b031660208201525b6020810151600090612710906106ee906001600160601b031687611c58565b6106f89190611c8d565b915196919550909350505050565b61033e838383604051806020016040528060008152506108c5565b6000818152600260205260408120546001600160a01b03168061034e5760405162461bcd60e51b815260206004820152602960248201527f4552433732313a206f776e657220717565727920666f72206e6f6e657869737460448201526832b73a103a37b5b2b760b91b606482015260840161044e565b60006001600160a01b0382166108035760405162461bcd60e51b815260206004820152602a60248201527f4552433732313a2062616c616e636520717565727920666f7220746865207a65604482015269726f206164647265737360b01b606482015260840161044e565b506001600160a01b031660009081526003602052604090205490565b3361082861085a565b6001600160a01b03161461084e5760405162461bcd60e51b815260040161044e90611bbc565b610858600061100b565b565b6009546001600160a01b031690565b3361087261085a565b6001600160a01b0316146108985760405162461bcd60e51b815260040161044e90611bbc565b805161062590600c90602084019061169e565b60606001805461036390611b82565b61062533838361105d565b6108cf3383610dad565b6108eb5760405162461bcd60e51b815260040161044e90611bf1565b6105e684848484611127565b606061090282610c59565b6109685760405162461bcd60e51b815260206004820152603160248201527f45524337323155524953746f726167653a2055524920717565727920666f72206044820152703737b732bc34b9ba32b73a103a37b5b2b760791b606482015260840161044e565b6000828152600660205260408120805461098190611b82565b80601f01602080910402602001604051908101604052809291908181526020018280546109ad90611b82565b80156109fa5780601f106109cf576101008083540402835291602001916109fa565b820191906000526020600020905b8154815290600101906020018083116109dd57829003601f168201915b505050505090506000610a1860408051602081019091526000815290565b90508051600003610a2a575092915050565b815115610a5c578082604051602001610a44929190611ca1565b60405160208183030381529060405292505050919050565b610a658461115a565b949350505050565b33610a7661085a565b6001600160a01b031614610a9c5760405162461bcd60e51b815260040161044e90611bbc565b600d54610ab2906001600160a01b031682611232565b50565b6060600c805461036390611b82565b6001600160a01b03918216600090815260056020908152604080832093909416825291909152205460ff1690565b33610afb61085a565b6001600160a01b031614610b215760405162461bcd60e51b815260040161044e90611bbc565b6001600160a01b038116610b865760405162461bcd60e51b815260206004820152602660248201527f4f776e61626c653a206e6577206f776e657220697320746865207a65726f206160448201526564647265737360d01b606482015260840161044e565b610ab28161100b565b6106258282604051806020016040528060008152506112e8565b610bb282610c59565b610c155760405162461bcd60e51b815260206004820152602e60248201527f45524337323155524953746f726167653a2055524920736574206f66206e6f6e60448201526d32bc34b9ba32b73a103a37b5b2b760911b606482015260840161044e565b6000828152600660209081526040909120825161033e9284019061169e565b60006001600160e01b0319821663152a902d60e11b148061034e575061034e8261131b565b6000908152600260205260409020546001600160a01b0316151590565b600081815260046020526040902080546001600160a01b0319166001600160a01b0384169081179091558190610cab82610721565b6001600160a01b03167f8c5be1e5ebec7d5bd14f71427d1e84f3dd0314c0f7b2291e5b200ac8c7c3b92560405160405180910390a45050565b6127106001600160601b0382161115610d0f5760405162461bcd60e51b815260040161044e90611cd0565b6001600160a01b038216610d635760405162461bcd60e51b815260206004820152601b60248201527a455243323938313a20496e76616c696420706172616d657465727360281b604482015260640161044e565b6040805180820182526001600160a01b0393841681526001600160601b0392831660208083019182526000968752600890529190942093519051909116600160a01b029116179055565b6000610db882610c59565b610e195760405162461bcd60e51b815260206004820152602c60248201527f4552433732313a206f70657261746f7220717565727920666f72206e6f6e657860448201526b34b9ba32b73a103a37b5b2b760a11b606482015260840161044e565b6000610e2483610721565b9050806001600160a01b0316846001600160a01b03161480610e5f5750836001600160a01b0316610e54846103e6565b6001600160a01b0316145b80610a655750610a658185610ac4565b826001600160a01b0316610e8282610721565b6001600160a01b031614610ee65760405162461bcd60e51b815260206004820152602560248201527f4552433732313a207472616e736665722066726f6d20696e636f72726563742060448201526437bbb732b960d91b606482015260840161044e565b6001600160a01b038216610f485760405162461bcd60e51b8152602060048201526024808201527f4552433732313a207472616e7366657220746f20746865207a65726f206164646044820152637265737360e01b606482015260840161044e565b610f53600082610c76565b6001600160a01b0383166000908152600360205260408120805460019290610f7c908490611d1a565b90915550506001600160a01b0382166000908152600360205260408120805460019290610faa908490611d31565b909155505060008181526002602052604080822080546001600160a01b0319166001600160a01b0386811691821790925591518493918716917fddf252ad1be2c89b69c2b068fc378daa952ba7f163c4a11628f55a4df523b3ef91a4505050565b600980546001600160a01b038381166001600160a01b0319831681179093556040519116919082907f8be0079c531659141344cd1fd0a4f28419497f9722a3daafe3b4186f6b6457e090600090a35050565b816001600160a01b0316836001600160a01b0316036110ba5760405162461bcd60e51b815260206004820152601960248201527822a9219b99189d1030b8383937bb32903a379031b0b63632b960391b604482015260640161044e565b6001600160a01b03838116600081815260056020908152604080832094871680845294825291829020805460ff191686151590811790915591519182527f17307eab39ab6107e8899845ad3d59bd9653f200f220920489ca2b5937696c31910160405180910390a3505050565b611132848484610e6f565b61113e8484848461136b565b6105e65760405162461bcd60e51b815260040161044e90611d49565b606061116582610c59565b6111c95760405162461bcd60e51b815260206004820152602f60248201527f4552433732314d657461646174613a2055524920717565727920666f72206e6f60448201526e3732bc34b9ba32b73a103a37b5b2b760891b606482015260840161044e565b60006111e060408051602081019091526000815290565b90506000815111611200576040518060200160405280600081525061122b565b8061120a8461146c565b60405160200161121b929190611ca1565b6040516020818303038152906040525b9392505050565b6127106001600160601b038216111561125d5760405162461bcd60e51b815260040161044e90611cd0565b6001600160a01b0382166112af5760405162461bcd60e51b815260206004820152601960248201527822a921991c9c189d1034b73b30b634b2103932b1b2b4bb32b960391b604482015260640161044e565b604080518082019091526001600160a01b039092168083526001600160601b039091166020909201829052600160a01b90910217600755565b6112f2838361156c565b6112ff600084848461136b565b61033e5760405162461bcd60e51b815260040161044e90611d49565b60006001600160e01b031982166380ac58cd60e01b148061134c57506001600160e01b03198216635b5e139f60e01b145b8061034e57506301ffc9a760e01b6001600160e01b031983161461034e565b60006001600160a01b0384163b1561146157604051630a85bd0160e11b81526001600160a01b0385169063150b7a02906113af903390899088908890600401611d9b565b6020604051808303816000875af19250505080156113ea575060408051601f3d908101601f191682019092526113e791810190611dd8565b60015b611447573d808015611418576040519150601f19603f3d011682016040523d82523d6000602084013e61141d565b606091505b50805160000361143f5760405162461bcd60e51b815260040161044e90611d49565b805181602001fd5b6001600160e01b031916630a85bd0160e11b149050610a65565b506001949350505050565b6060816000036114935750506040805180820190915260018152600360fc1b602082015290565b8160005b81156114bd57806114a781611df5565b91506114b69050600a83611c8d565b9150611497565b6000816001600160401b038111156114d7576114d7611753565b6040519080825280601f01601f191660200182016040528015611501576020820181803683370190505b5090505b8415610a6557611516600183611d1a565b9150611523600a86611e0e565b61152e906030611d31565b60f81b81838151811061154357611543611e22565b60200101906001600160f81b031916908160001a905350611565600a86611c8d565b9450611505565b6001600160a01b0382166115c25760405162461bcd60e51b815260206004820181905260248201527f4552433732313a206d696e7420746f20746865207a65726f2061646472657373604482015260640161044e565b6115cb81610c59565b156116175760405162461bcd60e51b815260206004820152601c60248201527b115490cdcc8c4e881d1bdad95b88185b1c9958591e481b5a5b9d195960221b604482015260640161044e565b6001600160a01b0382166000908152600360205260408120805460019290611640908490611d31565b909155505060008181526002602052604080822080546001600160a01b0319166001600160a01b03861690811790915590518392907fddf252ad1be2c89b69c2b068fc378daa952ba7f163c4a11628f55a4df523b3ef908290a45050565b8280546116aa90611b82565b90600052602060002090601f0160209004810192826116cc5760008555611712565b82601f106116e557805160ff1916838001178555611712565b82800160010185558215611712579182015b828111156117125782518255916020019190600101906116f7565b5061171e929150611722565b5090565b5b8082111561171e5760008155600101611723565b80356001600160a01b038116811461174e57600080fd5b919050565b634e487b7160e01b600052604160045260246000fd5b60006001600160401b038084111561178357611783611753565b604051601f8501601f19908116603f011681019082821181831017156117ab576117ab611753565b816040528093508581528686860111156117c457600080fd5b858560208301376000602087830101525050509392505050565b600082601f8301126117ef57600080fd5b61122b83833560208501611769565b6000806040838503121561181157600080fd5b61181a83611737565b915060208301356001600160401b0381111561183557600080fd5b611841858286016117de565b9150509250929050565b6001600160e01b031981168114610ab257600080fd5b60006020828403121561187357600080fd5b813561122b8161184b565b60005b83811015611899578181015183820152602001611881565b838111156105e65750506000910152565b600081518084526118c281602086016020860161187e565b601f01601f19169290920160200192915050565b60208152600061122b60208301846118aa565b6000602082840312156118fb57600080fd5b5035919050565b6000806040838503121561191557600080fd5b61191e83611737565b946020939093013593505050565b80356001600160601b038116811461174e57600080fd5b60008060006060848603121561195857600080fd5b61196184611737565b925060208401356001600160401b0381111561197c57600080fd5b611988868287016117de565b9250506119976040850161192c565b90509250925092565b600080604083850312156119b357600080fd5b8235915060208301356001600160401b0381111561183557600080fd5b6000806000606084860312156119e557600080fd5b6119ee84611737565b92506119fc60208501611737565b9150604084013590509250925092565b60008060408385031215611a1f57600080fd5b50508035926020909101359150565b600060208284031215611a4057600080fd5b61122b82611737565b600060208284031215611a5b57600080fd5b81356001600160401b03811115611a7157600080fd5b610a65848285016117de565b60008060408385031215611a9057600080fd5b611a9983611737565b915060208301358015158114611aae57600080fd5b809150509250929050565b60008060008060808587031215611acf57600080fd5b611ad885611737565b9350611ae660208601611737565b92506040850135915060608501356001600160401b03811115611b0857600080fd5b8501601f81018713611b1957600080fd5b611b2887823560208401611769565b91505092959194509250565b600060208284031215611b4657600080fd5b61122b8261192c565b60008060408385031215611b6257600080fd5b611b6b83611737565b9150611b7960208401611737565b90509250929050565b600181811c90821680611b9657607f821691505b602082108103611bb657634e487b7160e01b600052602260045260246000fd5b50919050565b6020808252818101527f4f776e61626c653a2063616c6c6572206973206e6f7420746865206f776e6572604082015260600190565b60208082526031908201527f4552433732313a207472616e736665722063616c6c6572206973206e6f74206f6040820152701ddb995c881b9bdc88185c1c1c9bdd9959607a1b606082015260800190565b634e487b7160e01b600052601160045260246000fd5b6000816000190483118215151615611c7257611c72611c42565b500290565b634e487b7160e01b600052601260045260246000fd5b600082611c9c57611c9c611c77565b500490565b60008351611cb381846020880161187e565b835190830190611cc781836020880161187e565b01949350505050565b6020808252602a908201527f455243323938313a20726f79616c7479206665652077696c6c206578636565646040820152692073616c65507269636560b01b606082015260800190565b600082821015611d2c57611d2c611c42565b500390565b60008219821115611d4457611d44611c42565b500190565b60208082526032908201527f4552433732313a207472616e7366657220746f206e6f6e20455243373231526560408201527131b2b4bb32b91034b6b83632b6b2b73a32b960711b606082015260800190565b6001600160a01b0385811682528416602082015260408101839052608060608201819052600090611dce908301846118aa565b9695505050505050565b600060208284031215611dea57600080fd5b815161122b8161184b565b600060018201611e0757611e07611c42565b5060010190565b600082611e1d57611e1d611c77565b500690565b634e487b7160e01b600052603260045260246000fdfea2646970667358221220e49359601734e26112301aea992bcf38d898ec848c7ffc60ee809ca4a027c5e864736f6c634300080d0033",
  "immutableReferences": {},
  "source": "// SPDX-License-Identifier: MIT\r\npragma solidity >=0.4.22 <0.9.0;\r\n\r\nimport \"@openzeppelin/contracts/token/ERC721/extensions/ERC721URIStorage.sol\";\r\nimport \"@openzeppelin/contracts/token/common/ERC2981.sol\";\r\nimport \"@openzeppelin/contracts/utils/Counters.sol\";\r\nimport \"@openzeppelin/contracts/access/Ownable.sol\";\r\n\r\n/**\r\n    This contract will not make use of baseURI as it will set the token uri on mint\r\n */\r\n\r\ncontract ERC721URIRoyalty is ERC721URIStorage, ERC2981, Ownable {\r\n    // counter to keep knowledge of how many tokens are in circulation;\r\n    using Counters for Counters.Counter;\r\n\r\n    Counters.Counter public tokenId_;\r\n    uint96 royaltyFee_;\r\n    string contractURI_;\r\n    address artist_;\r\n\r\n    constructor(\r\n        string memory _name,\r\n        string memory _symbol,\r\n        uint96 _fee,\r\n        string memory _contractURI\r\n    ) ERC721(_name, _symbol) {\r\n        /**\r\n            initialize state\r\n         */\r\n        artist_ = msg.sender;\r\n        contractURI_ = _contractURI;\r\n\r\n        // default royalty fee to be payed out to artist is transfers\r\n        _setDefaultRoyalty(msg.sender, _fee);\r\n    }\r\n\r\n    /**\r\n        Set up contact metadata - getter and setter\r\n     */\r\n\r\n    function contractURI() public view returns (string memory) {\r\n        return contractURI_;\r\n    }\r\n\r\n    function setContractURI(string memory _contractURI) public onlyOwner {\r\n        contractURI_ = _contractURI;\r\n    }\r\n\r\n    /**\r\n        mintTo - used to mint the nft using metadata supplied by the artist\r\n     */\r\n\r\n    function mintTo(address _to, string memory _tokenURI) public {\r\n        uint256 tokenId = tokenId_.current();\r\n        _safeMint(_to, tokenId);\r\n        _setTokenURI(tokenId, _tokenURI);\r\n    }\r\n\r\n    /**\r\n        Same as above but the token royalty is also set at mint\r\n     */\r\n    function mintToAdjustRoyalty(\r\n        address _to,\r\n        string memory _tokenURI,\r\n        uint96 _fee\r\n    ) public onlyOwner {\r\n        uint256 tokenId = tokenId_.current();\r\n        _safeMint(_to, tokenId);\r\n        _setTokenURI(tokenId, _tokenURI);\r\n        _setTokenRoyalty(tokenId, artist_, _fee);\r\n    }\r\n\r\n    /**\r\n        change the metadata for a specific token\r\n     */\r\n    function updateTokenURI(uint256 _tokenId, string memory _tokenURI)\r\n        public\r\n        onlyOwner\r\n    {\r\n        _setTokenURI(_tokenId, _tokenURI);\r\n    }\r\n\r\n    /**\r\n        update default royalty\r\n     */\r\n    function updateDefaultRoyalty(uint96 _fee) public onlyOwner {\r\n        _setDefaultRoyalty(artist_, _fee);\r\n    }\r\n\r\n    /**\r\n        Below are taken from ERC721 Royalty to meet the ERC2981 requirements\r\n     */\r\n    function supportsInterface(bytes4 interfaceId)\r\n        public\r\n        view\r\n        virtual\r\n        override(ERC721, ERC2981)\r\n        returns (bool)\r\n    {\r\n        return super.supportsInterface(interfaceId);\r\n    }\r\n\r\n    /**\r\n     * @dev See {ERC721-_burn}. This override additionally clears the royalty information for the token.\r\n     */\r\n    function _burn(uint256 tokenId) internal virtual override {\r\n        super._burn(tokenId);\r\n        _resetTokenRoyalty(tokenId);\r\n    }\r\n}\r\n",
  "sourcePath": "C:\\Users\\euang\\Documents\\nft\\nft-contract-template\\contracts\\ERC721URIRoyalty.sol",
  "compiler": {
    "name": "solc",
    "version": "0.8.13+commit.abaa5c0e.Emscripten.clang"
  },
  "schemaVersion": "3.4.7",
  "updatedAt": "2022-04-10T09:25:15.684Z",
  "networkType": "ethereum",
  "devdoc": {
    "kind": "dev",
    "methods": {
      "approve(address,uint256)": {
        "details": "See {IERC721-approve}."
      },
      "balanceOf(address)": {
        "details": "See {IERC721-balanceOf}."
      },
      "getApproved(uint256)": {
        "details": "See {IERC721-getApproved}."
      },
      "isApprovedForAll(address,address)": {
        "details": "See {IERC721-isApprovedForAll}."
      },
      "name()": {
        "details": "See {IERC721Metadata-name}."
      },
      "owner()": {
        "details": "Returns the address of the current owner."
      },
      "ownerOf(uint256)": {
        "details": "See {IERC721-ownerOf}."
      },
      "renounceOwnership()": {
        "details": "Leaves the contract without owner. It will not be possible to call `onlyOwner` functions anymore. Can only be called by the current owner. NOTE: Renouncing ownership will leave the contract without an owner, thereby removing any functionality that is only available to the owner."
      },
      "royaltyInfo(uint256,uint256)": {
        "details": "Returns how much royalty is owed and to whom, based on a sale price that may be denominated in any unit of exchange. The royalty amount is denominated and should be payed in that same unit of exchange."
      },
      "safeTransferFrom(address,address,uint256)": {
        "details": "See {IERC721-safeTransferFrom}."
      },
      "safeTransferFrom(address,address,uint256,bytes)": {
        "details": "See {IERC721-safeTransferFrom}."
      },
      "setApprovalForAll(address,bool)": {
        "details": "See {IERC721-setApprovalForAll}."
      },
      "symbol()": {
        "details": "See {IERC721Metadata-symbol}."
      },
      "tokenURI(uint256)": {
        "details": "See {IERC721Metadata-tokenURI}."
      },
      "transferFrom(address,address,uint256)": {
        "details": "See {IERC721-transferFrom}."
      },
      "transferOwnership(address)": {
        "details": "Transfers ownership of the contract to a new account (`newOwner`). Can only be called by the current owner."
      }
    },
    "version": 1
  },
  "userdoc": {
    "kind": "user",
    "methods": {
      "contractURI()": {
        "notice": "Set up contact metadata - getter and setter"
      },
      "mintTo(address,string)": {
        "notice": "mintTo - used to mint the nft using metadata supplied by the artist"
      },
      "mintToAdjustRoyalty(address,string,uint96)": {
        "notice": "Same as above but the token royalty is also set at mint"
      },
      "supportsInterface(bytes4)": {
        "notice": "Below are taken from ERC721 Royalty to meet the ERC2981 requirements"
      },
      "updateDefaultRoyalty(uint96)": {
        "notice": "update default royalty"
      },
      "updateTokenURI(uint256,string)": {
        "notice": "change the metadata for a specific token"
      }
    },
    "notice": "This contract will not make use of baseURI as it will set the token uri on mint",
    "version": 1
  }
}